:100000000C94B8000C94E0000C94E0000C94E00018
:100010000C94E0000C94E0000C94E0000C94860D2D
:100020000C94E0000C94E0000C94E0000C94E000D0
:100030000C94E0000C94E0000C94E0000C94E000C0
:100040000C94380E0C94E0000C94060E0C94E00D09
:100050000C94E0000C94E0000C94E0000C94E000A0
:100060000C94820E0C94E000253032752F2530322E
:10007000752F2530347520253032753A253032758C
:100080003A25303275001F1C1F1E1F1E1F1F1E1F0A
:100090001E1F00000000240027002A0000000000AE
:1000A000250028002B000000000023002600290066
:1000B000040404040404040402020202020203030E
:1000C0000303030301020408102040800102040816
:1000D0001020010204081020027E306D79335B5F2E
:1000E000707F7B771F0D3D4F470000000000000030
:1000F0000000000000000000000000000000000000
:100100000000000000800180007E306D79335B5F6D
:10011000707F7B00000000000000771F0D3D4F47FF
:1001200000370000000E0000006700000000000023
:1001300000000000000000000800771F0D3D4F4741
:1001400000370000000E00151D67000000000000D1
:100150000000000000000000000000000800020194
:100160000000030407000000000000000000A10FD1
:1001700011241FBECFEFD8E0DEBFCDBF12E0A0E05C
:10018000B1E0E6E4FDE202C005900D92A237B107AE
:10019000D9F724E0A2E7B2E001C01D92AE38B20761
:1001A000E1F710E0C8EBD0E004C02197FE010E9407
:1001B0009B16C73BD107C9F70E94B5100C94A11636
:1001C0000C94000008950895AF92BF92CF92DF92F1
:1001D000EF92FF920F931F93CF93DF936C017B01FC
:1001E0008B01040F151FEB015E01AE18BF08C0178D
:1001F000D10759F06991D601ED91FC910190F08100
:10020000E02DC6010995892B79F7C501DF91CF91C2
:100210001F910F91FF90EF90DF90CF90BF90AF9024
:100220000895FC01538D448D252F30E0842F90E0FC
:10023000821B930B541710F0CF96089501970895E1
:10024000FC01918D828D981761F0A28DAE0FBF2FAA
:10025000B11D5D968C91928D9F5F9F73928F90E000
:1002600008958FEF9FEF0895FC01918D828D98176F
:1002700031F0828DE80FF11D858D90E008958FEFAC
:100280009FEF0895FC01918D228D892F90E0805C75
:100290009F4F821B91098F73992708958AE693E0F7
:1002A0000E94420121E0892B09F420E0822F089569
:1002B00080E090E0892B29F00E944E0181110C947E
:1002C00000000895FC01A48DA80FB92FB11DA35AF9
:1002D000BF4F2C91848D90E001968F739927848F66
:1002E000A689B7892C93A089B1898C918370806489
:1002F0008C93938D848D981306C00288F389E02D2A
:1003000080818F7D80830895EF92FF920F931F93DA
:10031000CF93DF93EC0181E0888F9B8D8C8D9813B8
:100320001AC0E889F989808185FF15C09FB7F894C4
:10033000EE89FF896083E889F98980818370806410
:1003400080839FBF81E090E0DF91CF911F910F915B
:10035000FF90EF900895F62E0B8D10E00F5F1F4F6A
:100360000F731127E02E8C8D8E110CC00FB607FC79
:10037000FACFE889F989808185FFF5CFCE010E9407
:100380006201F1CFEB8DEC0FFD2FF11DE35AFF4F12
:10039000F0829FB7F8940B8FEA89FB898081806295
:1003A000CFCFCF93DF93EC01888D8823B9F0AA8952
:1003B000BB89E889F9898C9185FD03C0808186FD20
:1003C0000DC00FB607FCF7CF8C9185FFF2CF80816F
:1003D00085FFEDCFCE010E946201E9CFDF91CF9181
:1003E0000895833081F028F4813099F08230A9F0AB
:1003F00008958730A9F08830C9F08430B1F4809135
:1004000080008F7D03C0809180008F778093800073
:10041000089584B58F7784BD089584B58F7DFBCF13
:100420008091B0008F778093B00008958091B000E4
:100430008F7DF9CFCF93DF93282F30E0F901E75A72
:10044000FE4F8491F901EC53FF4FD491F901E0552F
:10045000FF4FC491CC23A1F081110E94F101EC2F38
:10046000F0E0EE0FFF1FEA55FF4FA591B491EC911C
:10047000ED2381E090E009F480E0DF91CF910895D1
:1004800080E090E0FACF1F93CF93DF93282F30E0E6
:10049000F901E75AFE4F8491F901EC53FF4FD491D3
:1004A000F901E055FF4FC491CC23A9F0162F81111B
:1004B0000E94F101EC2FF0E0EE0FFF1FE456FF4F1A
:1004C000A591B4918FB7F894EC91111108C0D09513
:1004D000DE23DC938FBFDF91CF911F910895DE2B38
:1004E000F8CF9091000189130BC0E8EDF0E0E491A2
:1004F0009FEF90930001E13049F028F0E23061F085
:1005000060E00C94430210926E00FACF90916F005D
:100510009D7F90936F00F4CF909170009D7F90939A
:10052000700091E09093B0009091B100987F94603A
:100530009093B1001092B300E3CFCF93DF9390E09C
:10054000FC01EC53FF4F249180559F4FFC01849197
:100550008823D1F090E0880F991FFC01EE56FF4FE1
:10056000A591B491FC01E456FF4FC591D49161115E
:100570000EC09FB7F8948C91E22FE0958E238C9358
:100580002881E223E8839FBFDF91CF9108958FB741
:10059000F894EC91E22BEC938FBFF6CFCF93DF93DF
:1005A000EC0161E082E00E949D02209731F460E05E
:1005B00082E0DF91CF910C944302CF3FD10511F43B
:1005C00061E0F6CFEBE5F1E0E491E33029F140F4AE
:1005D000E130B1F0E230D9F0C038D1058CF7E7CF87
:1005E000E73021F1E83051F1E430B1F7809180003B
:1005F000806280938000D0938B00C0938A0004C0F7
:1006000084B5806884BDC7BDDF91CF91089584B55E
:10061000806284BDC8BDF8CF8091800080688093DF
:100620008000D0938900C0938800EECF8091B00005
:1006300080688093B000C093B300E6CF8091B00093
:1006400080628093B000C093B400DECF3FB7F894CF
:100650008091D9029091DA02A091DB02B091DC0284
:1006600026B5A89B05C02F3F19F00196A11DB11D0D
:100670003FBFBA2FA92F982F8827BC01CD01620F49
:10068000711D811D911D42E0660F771F881F991F04
:100690004A95D1F708958F929F92AF92BF92CF92D1
:1006A000DF92EF92FF924B015C010E9426036B01E7
:1006B0007C010E9426036C197D098E099F09683E02
:1006C000734081059105A8F321E0821A9108A108E1
:1006D000B10888EEC80E83E0D81EE11CF11C81141D
:1006E0009104A104B10429F7FF90EF90DF90CF901F
:1006F000BF90AF909F908F9008952FB7F89460911E
:10070000D5027091D6028091D7029091D8022FBF66
:100710000895CF92DF92EF92FF920F931F930E9462
:100720007D038B019C01C090D002D090D102E0905B
:10073000D202F090D3026091CC027091CD028091F0
:10074000CE029091CF020C191D092E093F09083ED7
:10075000134021053105E0F0DC01CB010196A11D1C
:10076000B11D8093CC029093CD02A093CE02B093A2
:10077000CF02B701A60148515C4F6F4F7F4F4093A6
:10078000D0025093D1026093D2027093D302C7CFAC
:100790001F910F91FF90EF90DF90CF900895DC01B3
:1007A00050E0E6E8F0E081E0861730F49491490FDC
:1007B000511D8F5F3196F8CF633038F0CD018370D3
:1007C0009927892B11F44F5F5F4F9D012D5F3F4F9C
:1007D00036952795369527956DE671E0A69FC00161
:1007E000A79F900DB69F900D11240197820F931F24
:1007F000840F951F08954F925F926F927F928F9210
:100800009F92AF92BF92CF92DF92EF92FF92CF93DF
:10081000DF93EC016A017B012CE3822E912CA12C49
:10082000B12CCB01BA01A50194010E945F166D8322
:10083000CA01B901A50194010E945F166C83C7012A
:10084000B60120E13EE040E050E00E945F16CA01A0
:10085000B90128E130E040E050E00E945F166B8370
:10086000C701B60120E831E541E050E00E945F1683
:10087000188263E9862E6EEF962EAA24AA94BA2CCB
:100880008881782F7370C12CD12C7601C394772383
:1008900019F0C12CD12C7601260137019DE6490EB5
:1008A00091E0591E611C711C24153505460557053C
:1008B00078F0240135014C185D086E087F0873013B
:1008C00062012C0D3D1D4E1D5F1D8F5F8883D8CFAB
:1008D00081E089836981862F8150990BFC01EA5759
:1008E000FF4FE491711103C0623009F4EF5F8E2F66
:1008F00090E0B0E0A0E0281739074A075B0738F01E
:10090000281B390B4A0B5B0B6F5F6983E3CF2F5FAB
:100910002A83DF91CF91FF90EF90DF90CF90BF902F
:10092000AF909F908F907F906F905F904F900895C1
:10093000EF92FF920F931F93CF93DF93EC01888187
:100940004A81698190E00E94CF039C01A8E1B0E058
:100950000E9481162B817B018C01E20EF11C011D8E
:10096000111DA8019701ACE3B0E00E9490162C8104
:100970007B018C01E20EF11C011D111DA8019701E4
:100980000E9490162D81620F711D811D911DDF91B6
:10099000CF911F910F91FF90EF900895FC019F015F
:1009A0002F5F3F4F80818F7E803269F080E02AE0A8
:1009B000919130ED390F3A3040F4829F900D11241F
:1009C00080ED890FF5CFF901EACF08952091A902B2
:1009D000260F3327331F21323105ECF420916403B5
:1009E000FC0190E080E0243069F082E00895A0915D
:1009F000A9022191AC0147575D4FA40FB52FB11D3E
:100A00002C930196861798F38091A902680F609342
:100A1000A90280E0089581E008951092640381E0C6
:100A20008093430310923E0361E082E10E944302FF
:100A300061E083E10E944302E9EBF0E080818E7F78
:100A4000808380818D7F808388E48093B80085E4F3
:100A50008093BC000895CF93DF9391E09093880238
:100A60008823B9F0C091B800D091BA008091BC0041
:100A70008A7B8093BC0060E082E10E94430260E0D8
:100A800083E10E9443020E940D05D093BA00C093F7
:100A9000B800DF91CF910895CF92DF92EF92FF924D
:100AA0000F931F93CF93C82F813208F096C00E94F6
:100AB00026036B017C0180916403811169C081E090
:100AC00080936403809343039FEF909342031092BB
:100AD00041039C0F9093400380933F0380913F0319
:100AE000806D80933F0380913E03813009F077C091
:100AF00010923E030E9426036B017C0180913F030C
:100B00008093BB008091660390916703A091680376
:100B1000B0916903892B8A2B8B2BA1F00E942603AD
:100B20000091660310916703209168033091690377
:100B30006C197D098E099F090617170728073907C1
:100B400008F447C08091BC0083FDD8CF85EC80932A
:100B5000BC000E9426036B017C01809164038130FC
:100B600009F43FC0809141038C1710F4C0914103F8
:100B7000AEE1B3E0E4E4F3E080E08C1354C08C2FEA
:100B8000CF911F910F91FF90EF90DF90CF9008953C
:100B90008091660390916703A0916803B091690307
:100BA000892B8A2B8B2B09F486CF0E942603009178
:100BB00066031091670320916803309169036C19F3
:100BC0007D098E099F09061717072807390708F0BE
:100BD00072CF809165030E942B05C0E0D0CF85EED7
:100BE000B6CF8091660390916703A0916803B0919E
:100BF0006903892B8A2B8B2B09F4AFCF0E94260324
:100C00000091660310916703209168033091690396
:100C10006C197D098E099F090617170728073907E0
:100C200008F09BCFD6CF9D9191938F5FA6CF8F92E7
:100C30009F92AF92BF92CF92DF92EF92FF920F936B
:100C40001F93CF93DF93D0910B04D13208F0D7C01C
:100C5000182FC0911D030E9426036B017C01809117
:100C6000640381116BC082E080936403109343039B
:100C70008FEF8093420310924103D0934003ADEF76
:100C8000B2E0EEE1F3E080E0D81391C010923F03B0
:100C900080913F03CC0FC82BC0933F0380913E034C
:100CA000813009F088C010923E030E9426036B0138
:100CB0007C0180913F038093BB00809166039091FB
:100CC0006703A0916803B0916903892B8A2B8B2B52
:100CD000A1F00E9426030091660310916703209102
:100CE0006803309169036C197D098E099F09061705
:100CF00017072807390708F442C08091BC0083FD1C
:100D0000D8CF85EC8093BC000E9426036B017C0148
:100D100080916403823009F450C0809142038F3F78
:100D200009F46FC080914203803209F46CC0809155
:100D30004203803309F469C084E026C080916603D1
:100D400090916703A0916803B0916903892B8A2B66
:100D50008B2B09F484CF0E94260380906603909029
:100D60006703A0906803B09069036C197D098E0930
:100D70009F0986169706A806B90608F070CF8091DD
:100D800065030E942B0585E010920C0410920B0461
:100D90001092FC02DF91CF911F910F91FF90EF9085
:100DA000DF90CF90BF90AF909F908F9008959D91CE
:100DB00091938F5F69CF85EEA5CF80916603909167
:100DC0006703A0916803B0916903892B8A2B8B2B51
:100DD00009F49ECF0E9426030091660310916703D9
:100DE00020916803309169036C197D098E099F0970
:100DF000061717072807390708F08ACFC0CF81E008
:100E0000C3CF80E0C1CF82E0BFCF83E0BDCF1F93CF
:100E1000CF93DF93162FCBE8D4E0A881B98191E07E
:100E20009093FC0298E690931D0310920C0410928C
:100E30000B04ED91FC9111970190F081E02D682F4A
:100E4000CD01099588819981DC01ED91FC9101909A
:100E5000F081E02D612F099581E00E9417068A83B9
:100E6000DF91CF911F9108950895E0910E04809134
:100E70000D04E81730F4F0E0EC5BFC4F808190E06B
:100E800008958FEF9FEF089590910E0480910D04C7
:100E90002FEF3FEF981748F4E92FF0E0EC5BFC4FA1
:100EA000208130E09F5F90930E04C90108958091E6
:100EB0000D0490910E04891B990B0895CF92DF9237
:100EC000EF92FF920F931F93CF93DF937C01CB019F
:100ED0008A012091FC02222389F0EB016B01C40EF0
:100EE000D51ECC15DD0569F06991D701ED91FC9116
:100EF0000190F081E02DC7010995F3CF642F0E9486
:100F0000E604C801DF91CF911F910F91FF90EF9000
:100F1000DF90CF900895CF93DF931F92CDB7DEB7C8
:100F200069832091FC022223F9F020910B042032E6
:100F300058F021E030E0FC013383228390E080E030
:100F40000F90DF91CF91089580910C04E82FF0E08D
:100F5000E350FD4F998190838F5F80930C048093C1
:100F60000B0481E090E0ECCF61E0CE0101960E949D
:100F7000E604F7CF089590E080E00895CF92DF92E5
:100F8000EF92FF920F931F93CF93DF9300D0CDB7D3
:100F9000DEB769834A83880F991F00916504109119
:100FA0006604000F111FEFE0F4E09F012F50344062
:100FB0002017310714F41192F8CF2981FC01E15F69
:100FC000FB4F21838A81808360E0809163040E94CB
:100FD00043021016110604F501501109F801E15FF2
:100FE000FB4FE080D0906104C0905F0488E0F82E51
:100FF0006E2D661F6627661F8C2D0E944302EE0C25
:1010000061E08D2D0E94430260E08D2D0E9443021D
:10101000FA94F110EDCFDDCF61E0809163040F9081
:101020000F90DF91CF911F910F91FF90EF90DF9084
:10103000CF900C944302EF92FF921F93CF93DF93D4
:10104000209165043091660482179307B4F4EC0193
:1010500023E0880F991F2A95E1F79C01215E3B4F01
:10106000790111E0F70111927F0140E0612FCE017B
:101070000E94BE071F5F1930A9F7DF91CF911F9122
:10108000FF90EF9008952091650430916604121648
:1010900013068CF4603178F4E62FF0E0E752FF4F4E
:1010A0004491FC01E15FFB4F408B61E0680F90E0F1
:1010B00080E00C94BE070895DF92EF92FF920F93A9
:1010C0001F93CF93DF9300D000D000D0CDB7DEB711
:1010D00080918B0490918C0421E02093FC0228E6FF
:1010E00020931D0310920C0410920B04DC01ED916F
:1010F000FC910190F081E02D60E0099581E00E9473
:10110000170680938D04882339F040E050E0BA013F
:10111000CE0101960E94FB0387E00E944C051092CD
:101120000E0480930D04873051F084E080938D0489
:1011300040E050E0BA01CE0101960E94FB0380918D
:101140008B0490918C04DC01ED91FC910284F38579
:10115000E02D09958F77282F30E0F4E0359527951D
:10116000FA95E1F7922F990F990F022F091B000FA3
:10117000080F80918B0490918C04DC01ED91FC911F
:101180000284F385E02D09959C01A4E0359527950F
:10119000AA95E1F72F703327922F990F990FF22E0E
:1011A000F91AFF0CF80E80918B0490918C04DC01ED
:1011B000ED91FC910284F385E02D099586FF80C0B6
:1011C000982F9F71292F30E0E4E035952795EA9517
:1011D000E1F7322F330F330F122F131B110F190F9B
:1011E00085FD145F80918B0490918C04DC01ED915E
:1011F000FC910284F385E02D099580918B049091F8
:101200008C04DC01ED91FC910284F385E02D0995BD
:101210009C0194E0359527959A95E1F72F70332737
:10122000922F990F990FE22EE91AEE0CE80E809199
:101230008B0490918C04DC01ED91FC910284F38588
:10124000E02D09959C0144E0359527954A95E1F7F5
:101250002F703327922F990F990FD22ED91ADD0CA8
:10126000D80E80918B0490918C04DC01ED91FC915F
:101270000284F385E02D0995AC0164E0559547950E
:101280006A95E1F74F705527942F990F990F242FE6
:10129000291B220F280F3D2D4E2D512F6F2D702F02
:1012A00080E090E026960FB6F894DEBF0FBECDBF6B
:1012B000DF91CF911F910F91FF90EF90DF900895F4
:1012C0009C0174E0359527957A95E1F72F703327C7
:1012D000922F990F990F122F191B110F180F82CFF0
:1012E000CF9380918B0490918C0421E02093FC0299
:1012F00028E620931D0310920C0410920B04DC01CD
:10130000ED91FC910190F081E02D60E0099581E084
:101310000E941706C82F80938D0481111CC081E0A4
:101320000E944C0510920E0480930D04813031F020
:1013300084E080938D048C2FCF91089580918B044D
:1013400090918C04DC01ED91FC910284F385E02DF9
:101350000995C82FF0CFC0E0EECF0E94700987FD3D
:1013600004C081E090918D04911180E008950F9365
:101370001F93CF93DF93EC010E947009082F809197
:101380008B0490918C0421E02093FC0228E62093AA
:101390001D0310920C0410920B04DC01ED91FC91E2
:1013A0000190F081E02D60E00995A0918B04B0914F
:1013B0008C042D811AE0822F612F0E943F16682F26
:1013C000660F680F660F620F0078602BED91FC913D
:1013D00011970190F081E02DCD010995A0918B042A
:1013E000B0918C042C81822F612F0E943F16682FB0
:1013F000660F680F660F620FED91FC9111970190D7
:10140000F081E02DCD010995A0918B04B0918C0461
:101410002B81822F612F0E943F16682F660F680F65
:10142000660F620FED91FC9111970190F081E02D14
:10143000CD01099588814A81698190E00E94CF039E
:10144000069667E070E00E944B16682F811101C07C
:1014500067E080918B0490918C04DC01ED91FC910C
:101460000190F081E02D0995A0918B04B0918C043E
:101470002A811AE0822F612F0E943F16682F660F83
:10148000680F660F620FED91FC9111970190F0814A
:10149000E02DCD010995A0918B04B0918C04298198
:1014A000822F612F0E943F16682F660F680F660F0C
:1014B000620FED91FC9111970190F081E02DCD012B
:1014C0000995A0918B04B0918C042881822F612F03
:1014D0000E943F16682F660F680F660F620FED912E
:1014E000FC9111970190F081E02DCD01099581E0EB
:1014F0000E94170680938D04DF91CF911F910F9169
:101500000895CF93DF93EC0160E08E810E94430247
:1015100061E08E810E94430260E08E810E9443025E
:101520008BE891E00197F1F7DF91CF910895CF9289
:10153000DF92EF92FF920F931F93CF93DF936C0193
:101540007C0187E0E80EF11CD0E0C0E0062F10E03F
:10155000B8010C2E02C0759567950A94E2F7617088
:10156000F70181917F010E9443022196C430D10589
:1015700079F7C601DF91CF911F910F91FF90EF9006
:10158000DF90CF900C94810ACF92DF92EF92FF927E
:101590000F931F93CF93DF93EC01F62E642F8C8172
:1015A0000E9443028D818F3F19F060E00E94430248
:1015B0000F2D10E08F8584FF25C06E0187E0C80ED7
:1015C000D11CF12CE12CB8010E2C02C07595679549
:1015D0000A94E2F76170F60181916F010E94430263
:1015E000FFEFEF1AFF0A88E0E816F10461F7CE0179
:1015F000DF91CF911F910F91FF90EF90DF90CF90EF
:101600000C94810AB80184E0759567958A95E1F795
:10161000CE010E94970A6F2DCE01DF91CF911F91CD
:101620000F91FF90EF90DF90CF900C94970A40E0DD
:10163000682F87E694E00C94C40A81E00E94170B9F
:101640008BE39FE10197F1F70895CF93DF93823009
:1016500029F49091760498609093760480937A04AC
:1016600010927B0480E480937C0480E180937D046D
:1016700080E580937E0461E080916B040E949D026E
:1016800080916C048F3F19F061E00E949D0261E03F
:1016900080916D040E949D02C7E6D4E09E0127560A
:1016A00034408091760484FD0BC084E090E0219664
:1016B0002817390744F461E08E810E949D02EECF25
:1016C00088E090E0F4CF8BE39DE00197F1F760E0D4
:1016D00080916B040E94430260E080916D040E943F
:1016E000430280916C048F3F19F060E00E94430236
:1016F0008091760484FD34C063E087E694E00E9424
:10170000970ACBE4D6E4CE010197F1F763E087E6D0
:1017100094E00E94970A2197F1F763E087E694E04E
:101720000E94970A83E592E00197F1F762E087E66D
:1017300094E00E94970A8091760480620E94170BC1
:1017400084E0809377048CE00E94170B0E941D0BAD
:1017500082E08093780486E0DF91CF910C94170BA0
:1017600080620E94170B8BE496E40197F1F7809159
:10177000760480620E94170B83E592E00197F1F7EF
:101780008091760480620E94170BD5CF90917A04E5
:10179000691710F06FEF690FE62FF0E0E959FB4F82
:1017A0009489890F80680C94170B41E00E94C40A49
:1017B00081E090E0089541E06FEF87E694E00E94B9
:1017C000C40A81E090E00895EF92FF920F931F9377
:1017D000CF93DF938091EC029091ED022AE030E00C
:1017E000B9010E944B16FB01C82F80938002909391
:1017F00081028091EA029091EB02B9010E944B169E
:101800008C01CB01B9010E944B167C0190937F02A1
:1018100080937E0210937D0200937C02CF01B90178
:101820000E944B16682F90E080E00E9443086C2FC6
:1018300081E090E00E94430860E085E00E94C60BD2
:10184000C1E0D0E0EC16FD0624F00E94DB0B2196EF
:10185000F9CF61E084E00E94C60BC1E0D0E00C1734
:101860001D0724F00E94DB0B2196F9CFDF91CF9169
:101870001F910F91FF90EF900895FC0101900020BF
:10188000E9F73197AF01481B590BBC018AE693E099
:101890000C94E4008F929F92AF92BF920F931F938C
:1018A000CF93DF93CDB7DEB7A1970FB6F894DEBF25
:1018B0000FBECDBF19A2423008F44AE08E010F5D81
:1018C0001F4F842E912CB12CA12CA50194010E94B4
:1018D0005F16E62FB901CA01EA30F4F4E05DD801E1
:1018E000EE938D01232B242B252B79F790E080E0BC
:1018F000109719F0CD010E943D0CA1960FB6F894F7
:10190000DEBF0FBECDBFDF91CF911F910F91BF9072
:10191000AF909F908F900895E95CE1CFCF93DF93D4
:101920000E943D0CEC0181E391E00E943D0C8C0F84
:101930009D1FDF91CF91089585ED8093BC0080912C
:10194000660390916703A0916803B09169030796BD
:10195000A11DB11D23E0B695A795979587952A956A
:10196000D1F72091BC0024FD03C0109264030895B8
:101970004091660350916703609168037091690319
:10198000452B462B472B69F30097A105B10541F084
:1019900025E32A95F1F700000197A109B109E1CFEC
:1019A000809165030C942B05AF92BF92CF92DF928A
:1019B000EF92FF920F931F93CF93DF93CDB7DEB7D4
:1019C00064970FB6F894DEBF0FBECDBF8C01FC014B
:1019D00085811F928F9384811F928F9383811F92A1
:1019E0008F93808190E08053984F9F938F93828153
:1019F0001F928F9381811F928F9388E690E09F932F
:101A00008F931F9284E18F939E012F5F3F4F790147
:101A10003F932F930E945A13C7010E943D0C0E94CE
:101A20001D0BF801848190E09093E7028093E60219
:101A30000FB6F894DEBF0FBECDBF2AE030E0B9018B
:101A40000E944B166C01CB01B9010E944B165C0140
:101A50009093870280938602D0928502C09284027E
:101A600060E085E00E94C60BEE24E394F12CAE14F6
:101A7000BF0430F00E94DB0B3FEFE31AF30AF7CF0D
:101A800061E084E00E94C60BEE24E394F12CCE14B6
:101A9000DF0430F00E94DB0B8FEFE81AF80AF7CF73
:101AA000F801838190E09093E9028093E8022AE0B4
:101AB00030E0B9010E944B16182F80938202909358
:101AC0008302CB01B9010E944B16682F90E080E0A1
:101AD0000E944308612F81E090E00E94430868EE75
:101AE00073E080E090E00E944B0364960FB6F89498
:101AF000DEBF0FBECDBFDF91CF911F910F91FF9041
:101B0000EF90DF90CF90BF90AF9008951F920F920B
:101B10000FB60F9211242F933F934F935F936F93C0
:101B20007F938F939F93AF93BF93EF93FF93809196
:101B3000DE029091DF02A091E002B091E102892BD8
:101B40008A2B8B2BC1F19091DD02809100008927B7
:101B5000809300008091DE029091DF02A091E0026C
:101B6000B091E102181619061A061B069CF4809122
:101B7000DE029091DF02A091E002B091E1020197B4
:101B8000A109B1098093DE029093DF02A093E002E5
:101B9000B093E102FF91EF91BF91AF919F918F912F
:101BA0007F916F915F914F913F912F910F900FBE59
:101BB0000F901F901895809100010E947102EACF4A
:101BC0001F920F920FB60F9211242F933F934F93B2
:101BD0005F936F937F938F939F93AF93BF93EF9395
:101BE000FF938AE693E00E946201FF91EF91BF911B
:101BF000AF919F918F917F916F915F914F913F91A5
:101C00002F910F900FBE0F901F9018951F920F925B
:101C10000FB60F9211242F938F939F93EF93FF93FF
:101C2000E0917A03F0917B038081E0918003F09151
:101C3000810382FD1BC09081809183038F5F8F732E
:101C400020918403821741F0E0918303F0E0E6598C
:101C5000FC4F958F80938303FF91EF919F918F911C
:101C60002F910F900FBE0F901F9018958081F4CF89
:101C70001F920F920FB60F9211242F933F938F93C1
:101C80009F93AF93BF938091D5029091D602A0917C
:101C9000D702B091D8023091D40223E0230F2D3720
:101CA00058F50196A11DB11D2093D4028093D50251
:101CB0009093D602A093D702B093D8028091D90214
:101CC0009091DA02A091DB02B091DC020196A11D95
:101CD000B11D8093D9029093DA02A093DB02B093F6
:101CE000DC02BF91AF919F918F913F912F910F9007
:101CF0000FBE0F901F90189526E8230F0296A11D86
:101D0000B11DD2CF1F920F920FB60F9211242F93B5
:101D10003F934F935F936F937F938F939F93AF9373
:101D2000BF93EF93FF938091B900887F803609F4C9
:101D30004AC0F0F5883209F4A7C018F5803109F4DB
:101D40009BC0B8F4882309F4F9C0883009F494C022
:101D5000FF91EF91BF91AF919F918F917F916F9183
:101D60005F914F913F912F910F900FBE0F901F9059
:101D70001895883109F488C0803251F78093420366
:101D800014C0803409F49DC040F48033B9F3883323
:101D9000F9F68093420385ECB0C0803509F485C024
:101DA000883509F496C0883499F60E949C0CD0CFEF
:101DB000883909F48CC038F5883729F050F4883612
:101DC00011F0803729F683E0809364031092CB02F0
:101DD00057C0883809F47BC0803919F0803809F081
:101DE000B7CF8091CB02803208F071C0E091CB0276
:101DF00081E08E0F8093CB028091BB00F0E0E5552F
:101E0000FD4F80833DC0803B39F0E0F4803A09F417
:101E100079C0883A09F09CCF84E0809364031092E3
:101E2000AA021092A902E0910704F0910804099512
:101E30008091A90281110FC081E08093A9021092C4
:101E4000890209C0803C09F4A6CF883C09F4A3CFDD
:101E5000883B09F07DCFE091AA0281E08E0F80934C
:101E6000AA02F0E0E757FD4F80818093BB0090917C
:101E7000AA028091A90229C080913F038093BB00F0
:101E800085EC8093BC0064CF909141038091400326
:101E9000981758F5E091410381E08E0F809341033C
:101EA000F0E0E25EFC4F8081E9CFE091410381E008
:101EB0008E0F809341038091BB00F0E0E25EFC4F07
:101EC000808390914103809140039817C8F285E880
:101ED000D8CFE091410381E08E0F80934103809140
:101EE000BB00F0E0E25EFC4F8083809143038111F0
:101EF0005CCF81E080933E0384EA8093BC00109223
:101F0000640326CF85EC8093BC001092640380911B
:101F1000CB02803230F4E091CB02F0E0E555FD4F8A
:101F200010826091CB0270E0E0910904F0910A0404
:101F30008BEA92E009951092CB020ACF10924203ED
:101F400034CFCF92DF92EF92FF92CF93DF93109234
:101F50006D0310926C0388EEC82E83E0D82EE12C1E
:101F6000F12CC0926E03D0926F03E0927003F09256
:101F7000710385E091E090936B0380936A0385EC95
:101F800090E0909377038093760384EC90E09093B5
:101F900079038093780380EC90E090937B038093A7
:101FA0007A0381EC90E090937D0380937C0382EC34
:101FB00090E090937F0380937E0386EC90E0909373
:101FC0008103809380031092830310928403109204
:101FD00085031092860310920E0410920D04109245
:101FE0000C0410920B040E940D0582EE90E0909379
:101FF00008048093070483EE90E090930A04809392
:1020000009041092820410928104C0928304D09239
:102010008404E0928504F092860487E191E0909335
:10202000800480937F048FE794E090938C048093E6
:102030008B0410928D0410926A041092690489E254
:1020400091E090936804809367048EE080936B0422
:102050008FEF80936C048FE080936D0486E0809313
:102060006E0487E080936F0488E08093700489E0B9
:10207000809371041092720410927304109274048D
:10208000109275041092760481E00E94250BCBE03B
:10209000D0E0D0936004C0935F048DE090E0909313
:1020A0006204809361048AE090E0909364048093DA
:1020B000630481E090E0909366048093650461E09E
:1020C0008BE00E949D0261E0809161040E949D026C
:1020D00061E0809163040E949D0261E0809163044D
:1020E0000E944302D0936004C0935F04EFE1F4E0E8
:1020F0008FE594E011928E179F07E1F7D0E0C0E0E2
:102100008091650490916604C817D9073CF540E0BA
:102110006FE0CE010E94BE07809165049091660435
:10212000C817D9072CF447E06BE0CE010E94BE0728
:1021300040E069E0CE010E94BE07CE010E941B086C
:102140008091650490916604C817D9072CF440E08B
:102150006CE0CE010E94BE072196D2CFDF91CF91D5
:10216000FF90EF90DF90CF900895CF93DF93CDB79E
:10217000DEB72C970FB6F894DEBF0FBECDBF7894B4
:1021800084B5826084BD84B5816084BD85B582607C
:1021900085BD85B5816085BD80916E00816080932D
:1021A0006E00109281008091810082608093810096
:1021B00080918100816080938100809180008160A6
:1021C000809380008091B10084608093B100809101
:1021D000B00081608093B00080917A008460809329
:1021E0007A0080917A00826080937A0080917A00F0
:1021F000816080937A0080917A00806880937A0071
:102200001092C10060E083E00E949D0260E084E0E3
:102210000E949D0260E08CE00E949D0260E085E0EB
:102220000E949D0261E082E00E949D0283E00E9484
:102230001A0284E00E941A0285E00E941A028CE0D1
:102240000E941A0282E00E94250B80916504909101
:1022500066041816190634F441E06CE090E080E062
:102260000E94BE07809165049091660418161906B5
:1022700034F448E06AE090E080E00E94BE0790E01D
:1022800080E00E941B08E0917A03F0917B0382E0DA
:102290008083E0917A03F0917B031082E0917603D2
:1022A000F09177031082E0917803F091790380E157
:1022B000808310928203E0917E03F0917F0386E099
:1022C0008083E0917C03F0917D0380818061808335
:1022D000E0917C03F0917D03808188608083E091B0
:1022E0007C03F0917D03808180688083E0917C0392
:1022F000F0917D0380818F7D808384E391E00E9453
:102300003D0C8FE391E00E943D0C8BE491E00E9434
:102310008E0C10920E0410920D0410920C04109268
:102320000B040E940D0582EE90E0909308048093C8
:10233000070483EE90E090930A048093090464E616
:1023400070E080E090E00E944B0388E491E00E94FE
:10235000CE048F8389E0888783E491E00E94CE04D5
:1023600089878BE491E00E94CE048A878EE491E015
:102370000E94CE048B8781E591E00E94CE048C8779
:10238000CE0107960E94D40C81E391E00E943D0C9F
:102390000E94AD09811115C080918D04882309F434
:1023A000E6C084E591E00E943D0C60918D0470E0F0
:1023B00090E080E04AE00E944A0C81E391E00E94B4
:1023C0003D0C0E94AD0981110BC085E991E00E948E
:1023D0008E0C0E947009682F6F7780E00E940707BB
:1023E0000E945C0829833A834B835C836D837E83E0
:1023F000CE0101960E9498046B017C01CE010796E4
:102400000E949804C616D706E806F90608F0B8C078
:1024100080EC91E00E948E0CCE0107960E94B709D5
:1024200060E087E00E9407070E947D036093E2025C
:102430007093E3028093E4029093E50289E893E0CD
:102440002C01990F6608770890E0892E90E0992E6C
:102450000E947D030091E2021091E3022091E402C8
:102460003091E502601B710B820B930B603D77404E
:102470008105910578F10E94AD09811115C0809107
:102480008D04882309F4A3C084E591E00E943D0CEB
:1024900060918D0470E090E080E04AE00E944A0C78
:1024A00081E391E00E943D0C0E945C0829833A83FD
:1024B0004B835C836D837E83CE0101960E94D40C96
:1024C00081E391E00E943D0C64E670E080E090E0E2
:1024D0000E944B0388E692E00E943D0C2091EC02A2
:1024E0003091ED028091E8029091E90228173907B6
:1024F00009F08FC02091EA023091EB028091E60250
:102500009091E7022817390709F083C00E947D03E4
:102510006B017C010E947D036C197D098E099F0966
:1025200060367A4E8105910508F073C00E947D03E4
:102530006C197D098E099F096037774181059105E6
:1025400008F44AC08091FA029091FB02892B59F05D
:102550000E947D036C197D098E099F0960377741C0
:1025600081059105B8F282E00E947102D3CF80E725
:1025700091E00E948E0CCE0107960E94B70921CFF0
:10258000CE0101960E9498046B017C01CE01079652
:102590000E9498046C157D058E059F0528F485EF33
:1025A00091E00E948E0C3CCFCE0101960E949804CF
:1025B0006B017C01CE0107960E949804C616D706CF
:1025C000E806F90609F02CCF88E292E0EACF80E72E
:1025D00091E00E948E0C68CF10E000E0C8010E94DC
:1025E000CE0268E873E180E090E00E944B030F5F49
:1025F0001F4F0F3F110591F7C8010E94CE0268E8F6
:1026000073E180E090E00E944B0301501109A1F7B3
:1026100081CF0E947D03AA24A394B12C10E000E096
:102620006B01770FEE08FF080E947D036C197D098E
:102630008E099F09603D77408105910540F4AA9479
:10264000AB2811F4E1E00E27B12CA12CEDCF012B2A
:1026500029F5B301A201CE0107960E94FB03309138
:10266000F4024091F6025091F8026091F2027091EA
:10267000F0028091EE029091EF02282F803DE7E07A
:102680009E0710F020E3280F29837A836B835C83F5
:102690004D833E83CE0101960E94B70981149104B7
:1026A00009F4D6CE0E944E01882309F4D1CE0E94AF
:1026B0000000CECEAEE0B0E0E0E6F3E10C941616FA
:1026C0000D891E898F89988D2EE02C831A830983AA
:1026D00097FF02C080E090E801979E838D83AE0152
:1026E000455E5F4F698D7A8DCE0101960E948A13F7
:1026F0004D815E8157FD0AC02F81388542175307EF
:102700000CF49A01020F131FF80110822E96E4E0D8
:102710000C943216ABE0B0E0E0E9F3E10C9408165B
:102720007C013B018A01FC0117821682838181FFB3
:10273000C8C1CE0101965C01F7019381F30193FDBD
:10274000859193FF81913F01882309F453C185321C
:1027500039F493FD859193FF81913F01853229F4EE
:10276000B70190E00E947A15E7CF912C212C312CF3
:10277000FFE1F31538F08B3211F190F4803209F15A
:10278000833229F137FC3CC020ED280F2A3050F568
:1027900036FE20C08AE0989E200D1124922E06C09D
:1027A0008D3291F0803371F7689430F8F30193FD26
:1027B000859193FF81913F018111DACF21C0689407
:1027C00031F8689432F8F2CF689433F8EFCF689418
:1027D00034F8ECCFEAE02E9E200D1124222E6894CE
:1027E00035F8E4CF8E3229F436FC04C1689436F80B
:1027F000DDCF8C3619F4689437F8D8CF8836B1F22B
:10280000982F9F7D95549330E0F08336A1F1833764
:10281000C1F1833509F063C02801F2E04F0E511C6D
:10282000F801C080D180692D70E036FC02C06FEFE6
:102830007FEFC6010E9464154C01689437F882014D
:102840000AC00C5F1F4FFFE3F98388248394912C07
:102850006501E89437F833FE2DC0522C81149104A1
:1028600071F5552009F468CFB70180E290E00E942D
:102870007A155A94F6CFF801808189830E5F1F4F35
:10288000E4CF2801F2E04F0E511CF801C080D18046
:10289000692D70E036FC02C06FEF7FEFC6010E9429
:1028A0006F154C018201D5CFB70180E290E00E9404
:1028B0007A152A942814190409F0B0F7CECFF6013E
:1028C00037FC859137FE81916F01B70190E00E943E
:1028D0007A1551105A94F1E08F1A9108BFCF8436BF
:1028E00019F0893609F077C0F80137FE6BC06081B6
:1028F0007181828193810C5F1F4FF32DFF763F2EF4
:1029000097FF09C090958095709561957F4F8F4F87
:102910009F4F689437F82AE030E0A5010E94AA157D
:10292000C82ECA188C2C432C36FE0CC0E89440F8F4
:10293000C91440F434FE05C032FC03C0F32DFE7E02
:102940004F2E892C44FE95C0FE01EC0DF11D8081B7
:10295000803309F087C0242D297E422E842D887073
:10296000582E43FC95C040FE8FC09C2C821418F456
:102970002C0C922C981844FE91C0B70180E390E093
:102980000E947A1542FE09C088E790E041FE02C02D
:1029900088E590E0B7010E947A15C91408F48AC04E
:1029A000CA94D12C9FEFC91AD90ACA0CDB1CF601B4
:1029B00082916F01B70190E00E947A15AC14BD04BA
:1029C000B1F74FCF60817181072E000C880B990BF6
:1029D0000E5F1F4F92CFD32CE894D4F82AE030E05A
:1029E000853739F1232D297FD22E8F3601F148F416
:1029F0008835A9F0F701868197812B96E2E10C9446
:102A00002416803749F08837A9F7D4FE02C06894AD
:102A1000D2F820E130E00DC06894D4F8F6CF34FE4F
:102A200003C0822F8660D82E20E132E002C028E069
:102A300030E0F801D7FE0FC06081718182819381FF
:102A40000C5F1F4FA5010E94AA15C82ECA183D2C65
:102A5000E89437F867CF6081718190E080E00E5F85
:102A60001F4FF0CF42FC02C0839478CF83948394AD
:102A700075CF842D867809F471CFF6CFB70180E247
:102A800090E00E947A1583948214C0F3512C73CF86
:102A9000522C5818821408F46ECFF8CF842D867803
:102AA00009F47BCF8BE241FE80E247FC8DE2B70167
:102AB00090E071CFB70180E390E00E947A159A947C
:102AC0006CCF8FEF9FEF99CFFC0105906150704064
:102AD0000110D8F7809590958E0F9F1F0895FC01E7
:102AE0006150704001900110D8F7809590958E0F3D
:102AF0009F1F08950F931F93CF93DF93182F092FD4
:102B0000EB018B8181FD09C01FEF0FEF812F902F0B
:102B1000DF91CF911F910F91089582FF14C02E81F4
:102B20003F818C819D81281739073CF4E881F98128
:102B3000CF0101969983888310838E819F810196AE
:102B40009F838E83E3CFE885F985812F0995892BB3
:102B5000A1F3DACFFA01AA27283051F1203181F10F
:102B6000E8946F936E7F6E5F7F4F8F4F9F4FAF4F95
:102B7000B1E03ED0B4E03CD0670F781F891F9A1FA8
:102B8000A11D680F791F8A1F911DA11D6A0F711D5C
:102B9000811D911DA11D20D009F468943F912AE068
:102BA000269F11243019305D3193DEF6CF01089550
:102BB000462F4770405D4193B3E00FD0C9F7F6CF81
:102BC000462F4F70405D4A3318F0495D31FD405249
:102BD000419302D0A9F7EACFB4E0A69597958795DF
:102BE00077956795BA95C9F70097610571050895BE
:102BF0009B01AC010A2E069457954795379527956A
:102C0000BA95C9F7620F731F841F951FA01D089501
:102C10002F923F924F925F926F927F928F929F92EC
:102C2000AF92BF92CF92DF92EF92FF920F931F93DA
:102C3000CF93DF93CDB7DEB7CA1BDB0B0FB6F8948B
:102C4000DEBF0FBECDBF09942A88398848885F84CB
:102C50006E847D848C849B84AA84B984C884DF803C
:102C6000EE80FD800C811B81AA81B981CE0FD11D20
:102C70000FB6F894DEBF0FBECDBFED010895991BCE
:102C800079E004C0991F961708F0961B881F7A9563
:102C9000C9F780950895AA1BBB1B51E107C0AA1F65
:102CA000BB1FA617B70710F0A61BB70B881F991FED
:102CB0005A95A9F780959095BC01CD010895A1E2A0
:102CC0001A2EAA1BBB1BFD010DC0AA1FBB1FEE1FA6
:102CD000FF1FA217B307E407F50720F0A21BB30BF1
:102CE000E40BF50B661F771F881F991F1A9469F76D
:102CF00060957095809590959B01AC01BD01CF01C9
:102D00000895A29FB001B39FC001A39F700D811DC4
:102D10001124911DB29F700D811D1124911D0895E4
:102D20000E948116A59F900DB49F900DA49F800DC9
:102D3000911D11240895EE0FFF1F0590F491E02DD1
:062D40000994F894FFCF96
:102D4600FF000000008401E4001101D101420120CE
:102D5600013401000000008B075E07BB07340757EC
:102D6600074407350700000000D50BE400BB07BA8F
:102D7600070D0A00636F6D70696C65643A20005335
:102D8600657020323720323032320031313A3537F1
:102D96003A32370052544320636F6D6D756E696326
:102DA6006174696F6E73206572726F72203D2000C8
:102DB600525443206C6F737420636F6E666964654A
:102DC6006E636520696E207468652044617465547D
:102DD600696D65210052544320776173206E6F74CC
:102DE600206163746976656C792072756E6E696EA2
:102DF600672C207374617274696E67206E6F77003A
:102E0600525443206973206F6C6465722074686144
:102E16006E20636F6D70696C652074696D65212025
:102E260020285570646174696E6720446174655426
:102E3600696D652900525443206973206E65776574
:102E460072207468616E20636F6D70696C652074A2
:102E5600696D652E2028746869732069732065780A
:102E66007065637465642900525443206973207445
:102E760068652073616D6520617320636F6D70698D
:102E86006C652074696D652120286E6F74206578E5
:102E96007065637465642062757420616C6C20696A
:102EA600732066696E652900746573742072746395
:022EB60000001A
:00000001FF
